{
    "contractName": "IDOFactory",
    "abi": [
        {
            "anonymous": false,
            "inputs": [
                {
                    "indexed": false,
                    "internalType": "string",
                    "name": "title",
                    "type": "string"
                },
                {
                    "indexed": false,
                    "internalType": "address",
                    "name": "idoAddress",
                    "type": "address"
                },
                {
                    "indexed": false,
                    "internalType": "uint256",
                    "name": "idoId",
                    "type": "uint256"
                },
                {
                    "indexed": false,
                    "internalType": "address",
                    "name": "creator",
                    "type": "address"
                }
            ],
            "name": "IDOCreated",
            "type": "event"
        },
        {
            "anonymous": false,
            "inputs": [
                {
                    "indexed": true,
                    "internalType": "address",
                    "name": "previousOwner",
                    "type": "address"
                },
                {
                    "indexed": true,
                    "internalType": "address",
                    "name": "newOwner",
                    "type": "address"
                }
            ],
            "name": "OwnershipTransferred",
            "type": "event"
        },
        {
            "inputs": [
                {
                    "internalType": "uint256",
                    "name": "",
                    "type": "uint256"
                }
            ],
            "name": "Idos",
            "outputs": [
                {
                    "internalType": "address",
                    "name": "tokenAddress",
                    "type": "address"
                },
                {
                    "internalType": "uint256",
                    "name": "tokenPriceInWei",
                    "type": "uint256"
                },
                {
                    "internalType": "uint256",
                    "name": "hardCapInWei",
                    "type": "uint256"
                },
                {
                    "internalType": "uint256",
                    "name": "softCapInWei",
                    "type": "uint256"
                },
                {
                    "internalType": "uint256",
                    "name": "maxInvestInWei",
                    "type": "uint256"
                },
                {
                    "internalType": "uint256",
                    "name": "minInvestInWei",
                    "type": "uint256"
                },
                {
                    "internalType": "uint256",
                    "name": "openTime",
                    "type": "uint256"
                },
                {
                    "internalType": "uint256",
                    "name": "closeTime",
                    "type": "uint256"
                },
                {
                    "internalType": "uint8",
                    "name": "decimals",
                    "type": "uint8"
                }
            ],
            "stateMutability": "view",
            "type": "function"
        },
        {
            "inputs": [
                {
                    "internalType": "uint256",
                    "name": "",
                    "type": "uint256"
                }
            ],
            "name": "allIdos",
            "outputs": [
                {
                    "components": [
                        {
                            "internalType": "address",
                            "name": "tokenAddress",
                            "type": "address"
                        },
                        {
                            "internalType": "address[]",
                            "name": "whitelistedAddresses",
                            "type": "address[]"
                        },
                        {
                            "internalType": "uint256",
                            "name": "tokenPriceInWei",
                            "type": "uint256"
                        },
                        {
                            "internalType": "uint256",
                            "name": "hardCapInWei",
                            "type": "uint256"
                        },
                        {
                            "internalType": "uint256",
                            "name": "softCapInWei",
                            "type": "uint256"
                        },
                        {
                            "internalType": "uint256",
                            "name": "maxInvestInWei",
                            "type": "uint256"
                        },
                        {
                            "internalType": "uint256",
                            "name": "minInvestInWei",
                            "type": "uint256"
                        },
                        {
                            "internalType": "uint256",
                            "name": "openTime",
                            "type": "uint256"
                        },
                        {
                            "internalType": "uint256",
                            "name": "closeTime",
                            "type": "uint256"
                        },
                        {
                            "internalType": "uint8",
                            "name": "decimals",
                            "type": "uint8"
                        }
                    ],
                    "internalType": "struct IDOFactory.IdoInfo",
                    "name": "info",
                    "type": "tuple"
                },
                {
                    "internalType": "address",
                    "name": "creator",
                    "type": "address"
                }
            ],
            "stateMutability": "view",
            "type": "function"
        },
        {
            "inputs": [
                {
                    "internalType": "uint256",
                    "name": "_newFee",
                    "type": "uint256"
                }
            ],
            "name": "changeFee",
            "outputs": [],
            "stateMutability": "nonpayable",
            "type": "function"
        },
        {
            "inputs": [
                {
                    "internalType": "uint256",
                    "name": "_id",
                    "type": "uint256"
                }
            ],
            "name": "checkIdoDetails",
            "outputs": [
                {
                    "components": [
                        {
                            "components": [
                                {
                                    "internalType": "address",
                                    "name": "tokenAddress",
                                    "type": "address"
                                },
                                {
                                    "internalType": "address[]",
                                    "name": "whitelistedAddresses",
                                    "type": "address[]"
                                },
                                {
                                    "internalType": "uint256",
                                    "name": "tokenPriceInWei",
                                    "type": "uint256"
                                },
                                {
                                    "internalType": "uint256",
                                    "name": "hardCapInWei",
                                    "type": "uint256"
                                },
                                {
                                    "internalType": "uint256",
                                    "name": "softCapInWei",
                                    "type": "uint256"
                                },
                                {
                                    "internalType": "uint256",
                                    "name": "maxInvestInWei",
                                    "type": "uint256"
                                },
                                {
                                    "internalType": "uint256",
                                    "name": "minInvestInWei",
                                    "type": "uint256"
                                },
                                {
                                    "internalType": "uint256",
                                    "name": "openTime",
                                    "type": "uint256"
                                },
                                {
                                    "internalType": "uint256",
                                    "name": "closeTime",
                                    "type": "uint256"
                                },
                                {
                                    "internalType": "uint8",
                                    "name": "decimals",
                                    "type": "uint8"
                                }
                            ],
                            "internalType": "struct IDOFactory.IdoInfo",
                            "name": "info",
                            "type": "tuple"
                        },
                        {
                            "internalType": "address",
                            "name": "creator",
                            "type": "address"
                        }
                    ],
                    "internalType": "struct IDOFactory.IDOMaster",
                    "name": "master_",
                    "type": "tuple"
                }
            ],
            "stateMutability": "view",
            "type": "function"
        },
        {
            "inputs": [],
            "name": "counter",
            "outputs": [
                {
                    "internalType": "uint256",
                    "name": "",
                    "type": "uint256"
                }
            ],
            "stateMutability": "view",
            "type": "function"
        },
        {
            "inputs": [
                {
                    "components": [
                        {
                            "internalType": "address",
                            "name": "tokenAddress",
                            "type": "address"
                        },
                        {
                            "internalType": "address[]",
                            "name": "whitelistedAddresses",
                            "type": "address[]"
                        },
                        {
                            "internalType": "uint256",
                            "name": "tokenPriceInWei",
                            "type": "uint256"
                        },
                        {
                            "internalType": "uint256",
                            "name": "hardCapInWei",
                            "type": "uint256"
                        },
                        {
                            "internalType": "uint256",
                            "name": "softCapInWei",
                            "type": "uint256"
                        },
                        {
                            "internalType": "uint256",
                            "name": "maxInvestInWei",
                            "type": "uint256"
                        },
                        {
                            "internalType": "uint256",
                            "name": "minInvestInWei",
                            "type": "uint256"
                        },
                        {
                            "internalType": "uint256",
                            "name": "openTime",
                            "type": "uint256"
                        },
                        {
                            "internalType": "uint256",
                            "name": "closeTime",
                            "type": "uint256"
                        },
                        {
                            "internalType": "uint8",
                            "name": "decimals",
                            "type": "uint8"
                        }
                    ],
                    "internalType": "struct IDOFactory.IdoInfo",
                    "name": "info_",
                    "type": "tuple"
                }
            ],
            "name": "createPresale",
            "outputs": [
                {
                    "internalType": "address",
                    "name": "",
                    "type": "address"
                }
            ],
            "stateMutability": "payable",
            "type": "function"
        },
        {
            "inputs": [],
            "name": "owner",
            "outputs": [
                {
                    "internalType": "address",
                    "name": "",
                    "type": "address"
                }
            ],
            "stateMutability": "view",
            "type": "function"
        },
        {
            "inputs": [],
            "name": "renounceOwnership",
            "outputs": [],
            "stateMutability": "nonpayable",
            "type": "function"
        },
        {
            "inputs": [
                {
                    "internalType": "address",
                    "name": "newOwner",
                    "type": "address"
                }
            ],
            "name": "transferOwnership",
            "outputs": [],
            "stateMutability": "nonpayable",
            "type": "function"
        }
    ],
    "bytecode": "60806040526000600155662386f26fc1000060035534801561002057600080fd5b5061003161002c610036565b61003a565b61008a565b3390565b600080546001600160a01b038381166001600160a01b0319831681178455604051919092169283917f8be0079c531659141344cd1fd0a4f28419497f9722a3daafe3b4186f6b6457e09190a35050565b61378f806100996000396000f3fe608060405260043610620000925760003560e01c80636a1db1bf11620000615780636a1db1bf1462000156578063715018a6146200017d5780638da5cb5b1462000195578063af110da814620001ad578063f2fde38b14620001e95762000092565b806329806fa41462000097578063314ea96c14620000d45780633d1241b9146200010957806361bc221a146200012f575b600080fd5b348015620000a457600080fd5b50620000bc620000b636600462000cfc565b6200020e565b604051620000cb91906200102d565b60405180910390f35b348015620000e157600080fd5b50620000f9620000f336600462000cfc565b62000326565b604051620000cb9291906200106c565b620001206200011a36600462000cc0565b6200041a565b604051620000cb919062000e41565b3480156200013c57600080fd5b5062000147620007d3565b604051620000cb919062001098565b3480156200016357600080fd5b506200017b6200017536600462000cfc565b620007d9565b005b3480156200018a57600080fd5b506200017b62000824565b348015620001a257600080fd5b506200012062000878565b348015620001ba57600080fd5b50620001d2620001cc36600462000cfc565b62000887565b604051620000cb9998979695949392919062000e93565b348015620001f657600080fd5b506200017b6200020836600462000bc3565b620008f0565b6200021862000b34565b60008281526002602090815260409182902082516101808101845281546001600160a01b03168185019081526001830180548651818702810187019097528087529295939486949293869360608701939092909190830182828015620002a857602002820191906000526020600020905b81546001600160a01b0316815260019091019060200180831162000289575b50505091835250506002820154602080830191909152600383015460408301526004830154606083015260058301546080830152600683015460a0830152600783015460c0830152600883015460e083015260099092015460ff1661010090910152908252600a92909201546001600160a01b031691015292915050565b60026020908152600091825260409182902082516101408101845281546001600160a01b03168152600182018054855181860281018601909652808652929491938593858201939291830182828015620003aa57602002820191906000526020600020905b81546001600160a01b031681526001909101906020018083116200038b575b505050918352505060028201546020820152600382015460408201526004820154606082015260058201546080820152600682015460a0820152600782015460c0820152600882015460e082015260099091015460ff1661010090910152600a909101546001600160a01b031682565b60006003543414620004495760405162461bcd60e51b8152600401620004409062000fc9565b60405180910390fd5b60006200045a602084018462000bc3565b90506000816001600160a01b031663313ce5676040518163ffffffff1660e01b815260040160206040518083038186803b1580156200049857600080fd5b505afa158015620004ad573d6000803e3d6000fd5b505050506040513d601f19601f82011682018060405250810190620004d3919062000d34565b90506000826001600160a01b03166306fdde036040518163ffffffff1660e01b815260040160006040518083038186803b1580156200051157600080fd5b505afa15801562000526573d6000803e3d6000fd5b505050506040513d6000823e601f3d908101601f1916820160405262000550919081019062000c0b565b90506000306200055f62000878565b6040516200056d9062000b56565b6200057a92919062000e55565b604051809103906000f08015801562000597573d6000803e3d6000fd5b5090506000620005b06101408801610120890162000d15565b620005bd90600a620011a2565b620005d1604089013560608a013562001134565b620005dd91906200128d565b6040516323b872dd60e01b81529091506001600160a01b038616906323b872dd90620006129033908690869060040162000e6f565b602060405180830381600087803b1580156200062d57600080fd5b505af115801562000642573d6000803e3d6000fd5b505050506040513d601f19601f8201168201806040525081019062000668919062000be9565b6200067257600080fd5b62000684828289604001358a6200096d565b60015460405163789cdecb60e01b81526001600160a01b0384169163789cdecb91620006b4919060040162001098565b600060405180830381600087803b158015620006cf57600080fd5b505af1158015620006e4573d6000803e3d6000fd5b50506001546000908152600260205260409020899250905062000708828262001414565b5050600180546000908152600260205260408120600a90810180546001600160a01b031916331790556004805493840181559091528891027f8a35acfbc15ff81a39ae7d344fd709f28e8600b4aa8c65c6b64bfe7fe36bd19b016200076e828262001414565b50507fc02ce1bdc7c3689dbc67d25e29015832f7b1a98eeac99910c3c21af65581d67c838360015433604051620007a9949392919062000f32565b60405180910390a160018054906000620007c38362001386565b9091555091979650505050505050565b60015481565b620007e362000ae0565b6001600160a01b0316620007f662000878565b6001600160a01b0316146200081f5760405162461bcd60e51b8152600401620004409062000ff8565b600355565b6200082e62000ae0565b6001600160a01b03166200084162000878565b6001600160a01b0316146200086a5760405162461bcd60e51b8152600401620004409062000ff8565b62000876600062000ae4565b565b6000546001600160a01b031690565b600481815481106200089857600080fd5b60009182526020909120600a90910201805460028201546003830154600484015460058501546006860154600787015460088801546009909801546001600160a01b0390971698509496939592949193909260ff1689565b620008fa62000ae0565b6001600160a01b03166200090d62000878565b6001600160a01b031614620009365760405162461bcd60e51b8152600401620004409062000ff8565b6001600160a01b0381166200095f5760405162461bcd60e51b8152600401620004409062000f83565b6200096a8162000ae4565b50565b6001600160a01b0384166390107afe336200098c602085018562000bc3565b6040518363ffffffff1660e01b8152600401620009ab92919062000e55565b600060405180830381600087803b158015620009c657600080fd5b505af1158015620009db573d6000803e3d6000fd5b5050604051631c194ba960e01b81526001600160a01b0387169250631c194ba9915062000a34908690869060608701359060808801359060a08901359060c08a01359060e08b0135906101008c013590600401620010a1565b600060405180830381600087803b15801562000a4f57600080fd5b505af115801562000a64573d6000803e3d6000fd5b5050506001600160a01b03851690506389bc9cb562000a876020840184620010d7565b6040518363ffffffff1660e01b815260040162000aa692919062000ee0565b600060405180830381600087803b15801562000ac157600080fd5b505af115801562000ad6573d6000803e3d6000fd5b5050505050505050565b3390565b600080546001600160a01b038381166001600160a01b0319831681178455604051919092169283917f8be0079c531659141344cd1fd0a4f28419497f9722a3daafe3b4186f6b6457e09190a35050565b604051806040016040528062000b4962000b64565b8152600060209091015290565b612245806200151583390190565b60405180610140016040528060006001600160a01b031681526020016060815260200160008152602001600081526020016000815260200160008152602001600081526020016000815260200160008152602001600060ff1681525090565b60006020828403121562000bd5578081fd5b813562000be281620014ee565b9392505050565b60006020828403121562000bfb578081fd5b8151801515811462000be2578182fd5b60006020828403121562000c1d578081fd5b815167ffffffffffffffff8082111562000c35578283fd5b818401915084601f83011262000c49578283fd5b81518181111562000c5e5762000c5e620013ba565b604051601f8201601f19908116603f0116810190838211818310171562000c895762000c89620013ba565b8160405282815287602084870101111562000ca2578586fd5b62000cb583602083016020880162001353565b979650505050505050565b60006020828403121562000cd2578081fd5b813567ffffffffffffffff81111562000ce9578182fd5b8201610140818503121562000be2578182fd5b60006020828403121562000d0e578081fd5b5035919050565b60006020828403121562000d27578081fd5b813562000be28162001504565b60006020828403121562000d46578081fd5b815162000be28162001504565b6001600160a01b03169052565b6000815180845260208085019450808401835b8381101562000d9a5781516001600160a01b03168752958201959082019060010162000d73565b509495945050505050565b600061014062000db784845162000d53565b602083015181602086015262000dd08286018262000d60565b91505060408301516040850152606083015160608501526080830151608085015260a083015160a085015260c083015160c085015260e083015160e08501526101008084015181860152506101208084015162000e308287018262000e3a565b5090949350505050565b60ff169052565b6001600160a01b0391909116815260200190565b6001600160a01b0392831681529116602082015260400190565b6001600160a01b039384168152919092166020820152604081019190915260600190565b6001600160a01b03999099168952602089019790975260408801959095526060870193909352608086019190915260a085015260c084015260e083015260ff166101008201526101200190565b60208082528181018390526000908460408401835b8681101562000f2757823562000f0b81620014ee565b6001600160a01b03168252918301919083019060010162000ef5565b509695505050505050565b600060808252855180608084015262000f538160a0850160208a0162001353565b6001600160a01b03958616602084015260408301949094525092166060830152601f01601f19160160a001919050565b60208082526026908201527f4f776e61626c653a206e6577206f776e657220697320746865207a65726f206160408201526564647265737360d01b606082015260800190565b602080825260159082015274024b731b7b93932b1ba102332b29030b6b7bab73a1605d1b604082015260600190565b6020808252818101527f4f776e61626c653a2063616c6c6572206973206e6f7420746865206f776e6572604082015260600190565b6000602082528251604060208401526200104b606084018262000da5565b602094909401516001600160a01b0316604093909301929092525090919050565b60006040825262001081604083018562000da5565b905060018060a01b03831660208301529392505050565b90815260200190565b978852602088019690965260408701949094526060860192909252608085015260a084015260c083015260e08201526101000190565b6000808335601e19843603018112620010ee578283fd5b83018035915067ffffffffffffffff82111562001109578283fd5b60209081019250810236038213156200112157600080fd5b9250929050565b60009081526020902090565b6000826200115057634e487b7160e01b81526012600452602481fd5b500490565b80825b600180861162001169575062001199565b8187048211156200117e576200117e620013a4565b808616156200118c57918102915b9490941c93800262001158565b94509492505050565b600062000be260001960ff851684600082620011c15750600162000be2565b81620011d05750600062000be2565b8160018114620011e95760028114620011f45762001228565b600191505062000be2565b60ff841115620012085762001208620013a4565b6001841b915084821115620012215762001221620013a4565b5062000be2565b5060208310610133831016604e8410600b841016171562001260575081810a838111156200125a576200125a620013a4565b62000be2565b6200126f848484600162001155565b808604821115620012845762001284620013a4565b02949350505050565b6000816000190483118215151615620012aa57620012aa620013a4565b500290565b68010000000000000000831115620012cb57620012cb620013ba565b80548382558084101562001305576000828152602081208581019083015b808210156200130157828255600182019150620012e9565b5050505b5081620013128262001128565b6000805b868110156200134a57620013366200132e85620013d0565b8385620014c4565b602093909301926001928301920162001316565b50505050505050565b60005b838110156200137057818101518382015260200162001356565b8381111562001380576000848401525b50505050565b60006000198214156200139d576200139d620013a4565b5060010190565b634e487b7160e01b600052601160045260246000fd5b634e487b7160e01b600052604160045260246000fd5b60008135620013df81620014ee565b92915050565b60008135620013df8162001504565b80546001600160a01b0319166001600160a01b0392909216919091179055565b6200142a6200142383620013d0565b82620013f4565b620014396020830183620010d7565b62001449818360018601620012af565b505060408201356002820155606082013560038201556080820135600482015560a0820135600582015560c0820135600682015560e082013560078201556101008201356008820155620014af620014a56101208401620013e5565b60098301620014b3565b5050565b60ff821660ff198254161781555050565b80546001600160a01b0360089390930283811b80199092169490931690921b909116919091179055565b6001600160a01b03811681146200096a57600080fd5b60ff811681146200096a57600080fdfe60806040526012805460ff191660011790553480156200001e57600080fd5b5060405162002245380380620022458339810160408190526200004191620000de565b60016000556001600160a01b038216158015906200006757506001600160a01b03811615155b6200008f5760405162461bcd60e51b8152600401620000869062000115565b60405180910390fd5b600180546001600160a01b039384166001600160a01b031991821617909155600280549290931691161790556200014c565b80516001600160a01b0381168114620000d957600080fd5b919050565b60008060408385031215620000f1578182fd5b620000fc83620000c1565b91506200010c60208401620000c1565b90509250929050565b60208082526018908201527f617267732063616e6e6f74206265206164647265737320300000000000000000604082015260600190565b6120e9806200015c6000396000f3fe6080604052600436106102345760003560e01c806389bc9cb51161012e578063b8e010de116100ab578063e861e34d1161006f578063e861e34d146105a9578063e8b5e51f146105be578063eb0ce841146105c6578063fb05ed37146105db578063fc0c546a146105fb57610243565b8063b8e010de14610540578063bd7eb7fc14610555578063c51d16b61461056a578063d6c86b1b1461057f578063dcf564be1461059457610243565b8063b2d5ae44116100f2578063b2d5ae44146104ca578063b2f5a54c146104df578063b31f8f9314610501578063b425688814610516578063b4f0e4a71461052b57610243565b806389bc9cb51461044b57806390107afe1461046b578063966dae0e1461048b5780639fa1eccc146104a0578063a7578aa5146104b557610243565b8063392087fd116101bc5780636cb96287116101805780636cb96287146103cc5780636defbf80146103e1578063789cdecb146103f65780637aca97b5146104165780637e1c0c091461043657610243565b8063392087fd146103585780634507fbd91461037857806348c54b9d1461038d5780634d48b487146103a2578063627749e6146103b757610243565b80631c75f085116102035780631c75f085146102ca57806324f32f82146102ec57806329b8caff1461030c5780632f8de81014610321578063313ce5671461033657610243565b806302fb0c5e146102485780630ca99ca81461027357806315a55347146102955780631c194ba9146102aa57610243565b3661024357610241610610565b005b600080fd5b34801561025457600080fd5b5061025d6108b1565b60405161026a919061194c565b60405180910390f35b34801561027f57600080fd5b506102886108ba565b60405161026a9190611ee6565b3480156102a157600080fd5b506102886108c0565b3480156102b657600080fd5b506102416102c5366004611873565b6108c6565b3480156102d657600080fd5b506102df610998565b60405161026a91906118c7565b3480156102f857600080fd5b50610241610307366004611843565b6109a7565b34801561031857600080fd5b50610288610a0a565b34801561032d57600080fd5b50610288610a10565b34801561034257600080fd5b5061034b610a16565b60405161026a9190611eef565b34801561036457600080fd5b50610241610373366004611843565b610a1f565b34801561038457600080fd5b50610241610a82565b34801561039957600080fd5b50610241610ade565b3480156103ae57600080fd5b50610241610c9f565b3480156103c357600080fd5b50610288610e12565b3480156103d857600080fd5b50610241610e18565b3480156103ed57600080fd5b5061025d610ed8565b34801561040257600080fd5b50610241610411366004611843565b610ee6565b34801561042257600080fd5b50610241610431366004611843565b610f15565b34801561044257600080fd5b50610288610f8a565b34801561045757600080fd5b506102416104663660046117b4565b610f90565b34801561047757600080fd5b50610241610486366004611782565b611063565b34801561049757600080fd5b506102df6110ee565b3480156104ac57600080fd5b506102886110fd565b3480156104c157600080fd5b50610288611103565b3480156104d657600080fd5b50610241611109565b3480156104eb57600080fd5b506104f4611308565b60405161026a91906118f4565b34801561050d57600080fd5b50610288611496565b34801561052257600080fd5b5061028861149c565b34801561053757600080fd5b506102886114a2565b34801561054c57600080fd5b506102416114a8565b34801561056157600080fd5b506102df61150c565b34801561057657600080fd5b50610288611520565b34801561058b57600080fd5b50610288611526565b3480156105a057600080fd5b5061024161152c565b3480156105b557600080fd5b50610288611639565b610241610610565b3480156105d257600080fd5b5061024161163f565b3480156105e757600080fd5b506102886105f6366004611761565b61167a565b34801561060757600080fd5b506102df6116f3565b6002600054141561063c5760405162461bcd60e51b815260040161063390611de9565b60405180910390fd5b600260009081553381526017602052604090205460ff1661066f5760405162461bcd60e51b815260040161063390611c57565b60125460ff166106915760405162461bcd60e51b815260040161063390611cea565b600c544210156106b35760405162461bcd60e51b815260040161063390611e20565b600d5442106106d45760405162461bcd60e51b815260040161063390611957565b600f54600854106106f75760405162461bcd60e51b815260040161063390611d3a565b6000600b54116107195760405162461bcd60e51b815260040161063390611eb6565b600b5461072534611702565b11156107435760405162461bcd60e51b815260040161063390611a57565b3360009081526016602052604081205461075e903490611efd565b9050600554811015806107755750600f5460085410155b6107915760405162461bcd60e51b815260040161063390611b5e565b60045415806107a257506004548111155b6107be5760405162461bcd60e51b815260040161063390611a27565b3360009081526016602052604090205461082a57600980549060006107e283612082565b9091555050601580546001810182556000919091527f55f448fdea98c4d29eb340757ef0a66cd03dbb9538908a6a81d96026b71ec4750180546001600160a01b031916331790555b346008600082825461083c9190611efd565b9091555061084b905034611702565b6011600082825461085c9190611efd565b909155505033600090815260166020526040902081905561087c34611702565b600b600082825461088d919061206b565b9091555050600b546108a9576012805461ff0019166101001790555b506001600055565b60125460ff1681565b600f5481565b60115481565b6001546001600160a01b031633146108f05760405162461bcd60e51b815260040161063390611be7565b600088116108fd57600080fd5b6000871161090a57600080fd5b6000821161091757600080fd5b6000811161092457600080fd5b6000861161093157600080fd5b61093b878961204c565b86111561094757600080fd5b8585111561095457600080fd5b8383111561096157600080fd5b80821061096d57600080fd5b600a889055600b97909755600795909555600f93909355601091909155600455600555600c55600d55565b6002546001600160a01b031681565b60065461010090046001600160a01b031633146109d65760405162461bcd60e51b815260040161063390611d12565b60125460ff166109f85760405162461bcd60e51b815260040161063390611cea565b60008111610a0557600080fd5b600f55565b60095481565b60075481565b60065460ff1681565b60065461010090046001600160a01b03163314610a4e5760405162461bcd60e51b815260040161063390611d12565b60125460ff16610a705760405162461bcd60e51b815260040161063390611cea565b60008111610a7d57600080fd5b601055565b6002546001600160a01b03163314610aac5760405162461bcd60e51b815260040161063390611c36565b600f5460085410610acf5760405162461bcd60e51b815260040161063390611b1c565b6014805460ff19166001179055565b3360009081526017602052604090205460ff16610b0d5760405162461bcd60e51b815260040161063390611c57565b60125460ff16610b2f5760405162461bcd60e51b815260040161063390611cea565b33600090815260166020526040902054610b5b5760405162461bcd60e51b815260040161063390611abc565b3360009081526018602052604090205460ff1615610b8b5760405162461bcd60e51b815260040161063390611ae5565b601254610100900460ff16610bb25760405162461bcd60e51b8152600401610633906119f0565b60026000541415610bd55760405162461bcd60e51b815260040161063390611de9565b6002600090815533808252601860209081526040808420805460ff191660011790556003546016909252909220546001600160a01b03929092169163a9059cbb9190610c2090611702565b6040518363ffffffff1660e01b8152600401610c3d9291906118db565b602060405180830381600087803b158015610c5757600080fd5b505af1158015610c6b573d6000803e3d6000fd5b505050506040513d601f19601f82011682018060405250810190610c8f9190611823565b610c9857600080fd5b6001600055565b60125460ff16610cc15760405162461bcd60e51b815260040161063390611cea565b6002546001600160a01b03163314610ceb5760405162461bcd60e51b815260040161063390611d64565b6012805460ff191690556003546040516370a0823160e01b81526000916001600160a01b0316906370a0823190610d269030906004016118c7565b60206040518083038186803b158015610d3e57600080fd5b505afa158015610d52573d6000803e3d6000fd5b505050506040513d601f19601f82011682018060405250810190610d76919061185b565b90508015610e0f5760035460065460405163a9059cbb60e01b81526001600160a01b039283169263a9059cbb92610dbb926101009091049091169085906004016118db565b602060405180830381600087803b158015610dd557600080fd5b505af1158015610de9573d6000803e3d6000fd5b505050506040513d601f19601f82011682018060405250810190610e0d9190611823565b505b50565b600d5481565b60065461010090046001600160a01b03163314610e475760405162461bcd60e51b815260040161063390611d12565b60125460ff16610e695760405162461bcd60e51b815260040161063390611cea565b601254610100900460ff16610e905760405162461bcd60e51b8152600401610633906119f0565b4715610ed6576006546040516001600160a01b0361010090920491909116904780156108fc02916000818181858888f19350505050158015610e0f573d6000803e3d6000fd5b565b601254610100900460ff1681565b6001546001600160a01b03163314610f105760405162461bcd60e51b815260040161063390611be7565b601355565b60065461010090046001600160a01b03163314610f445760405162461bcd60e51b815260040161063390611d12565b60125460ff16610f665760405162461bcd60e51b815260040161063390611cea565b428111610f855760405162461bcd60e51b815260040161063390611b95565b600d55565b600a5481565b60065461010090046001600160a01b0316331480610fb857506001546001600160a01b031633145b610fd45760405162461bcd60e51b815260040161063390611e7f565b80610fde57600080fd5b60005b8181101561105e5760016017600085858581811061100f57634e487b7160e01b600052603260045260246000fd5b90506020020160208101906110249190611761565b6001600160a01b031681526020810191909152604001600020805460ff19169115159190911790558061105681612082565b915050610fe1565b505050565b6001546001600160a01b0316331461108d5760405162461bcd60e51b815260040161063390611be7565b6001600160a01b038216158015906110ad57506001600160a01b03811615155b6110b657600080fd5b60068054610100600160a81b0319166101006001600160a01b0394851602179055600380546001600160a01b03191691909216179055565b6001546001600160a01b031681565b60045481565b600e5481565b3360009081526017602052604090205460ff166111385760405162461bcd60e51b815260040161063390611c57565b336000908152601660205260409020546111645760405162461bcd60e51b815260040161063390611abc565b60145460ff166111865760405162461bcd60e51b815260040161063390611977565b3360009081526018602052604090205460ff16156111b65760405162461bcd60e51b815260040161063390611ae5565b600260005414156111d95760405162461bcd60e51b815260040161063390611de9565b600260005560125460ff161561129a57600c5442101561120b5760405162461bcd60e51b815260040161063390611e57565b600d5442101561122d5760405162461bcd60e51b815260040161063390611dc1565b60006010541161124f5760405162461bcd60e51b815260040161063390611c8e565b601054600854106112725760405162461bcd60e51b815260040161063390611c0c565b601254610100900460ff161561129a5760405162461bcd60e51b8152600401610633906119ae565b336000908152601860209081526040808320805460ff19166001179055601690915290205447806112ca57600080fd5b81156112ff57604051339083156108fc029084906000818181858888f193505050501580156112fd573d6000803e3d6000fd5b505b50506001600055565b60155460609067ffffffffffffffff81111561133457634e487b7160e01b600052604160045260246000fd5b60405190808252806020026020018201604052801561136d57816020015b61135a61172e565b8152602001906001900390816113525790505b50905060005b601554811015611492576015818154811061139e57634e487b7160e01b600052603260045260246000fd5b9060005260206000200160009054906101000a90046001600160a01b03168282815181106113dc57634e487b7160e01b600052603260045260246000fd5b6020026020010151600001906001600160a01b031690816001600160a01b031681525050611452601660006015848154811061142857634e487b7160e01b600052603260045260246000fd5b60009182526020808320909101546001600160a01b03168352820192909252604001902054611702565b82828151811061147257634e487b7160e01b600052603260045260246000fd5b60209081029190910181015101528061148a81612082565b915050611373565b5090565b600b5481565b600c5481565b60135481565b60065461010090046001600160a01b031633146114d75760405162461bcd60e51b815260040161063390611d12565b60105460085410156114fb5760405162461bcd60e51b815260040161063390611cb3565b6012805461ff001916610100179055565b60065461010090046001600160a01b031681565b60085481565b60105481565b60065461010090046001600160a01b0316331461155b5760405162461bcd60e51b815260040161063390611d12565b601454610100900460ff166115825760405162461bcd60e51b815260040161063390611a85565b6000601154600a54611594919061206b565b1115610ed657600354601154600a546001600160a01b039092169163a9059cbb9133916115c1919061206b565b6040518363ffffffff1660e01b81526004016115de9291906118db565b602060405180830381600087803b1580156115f857600080fd5b505af115801561160c573d6000803e3d6000fd5b505050506040513d601f19601f820116820180604052508101906116309190611823565b610ed657600080fd5b60055481565b6002546001600160a01b031633146116695760405162461bcd60e51b815260040161063390611c36565b6014805461ff001916610100179055565b3360009081526017602052604081205460ff166116a95760405162461bcd60e51b815260040161063390611c57565b60125460ff166116cb5760405162461bcd60e51b815260040161063390611cea565b6001600160a01b0382166000908152601660205260409020546116ed90611702565b92915050565b6003546001600160a01b031681565b6007546006546000919061171a9060ff16600a611f7b565b611724908461204c565b6116ed9190611f15565b604080518082019091526000808252602082015290565b80356001600160a01b038116811461175c57600080fd5b919050565b600060208284031215611772578081fd5b61177b82611745565b9392505050565b60008060408385031215611794578081fd5b61179d83611745565b91506117ab60208401611745565b90509250929050565b600080602083850312156117c6578182fd5b823567ffffffffffffffff808211156117dd578384fd5b818501915085601f8301126117f0578384fd5b8135818111156117fe578485fd5b8660208083028501011115611811578485fd5b60209290920196919550909350505050565b600060208284031215611834578081fd5b8151801515811461177b578182fd5b600060208284031215611854578081fd5b5035919050565b60006020828403121561186c578081fd5b5051919050565b600080600080600080600080610100898b03121561188f578384fd5b505086359860208801359850604088013597606081013597506080810135965060a0810135955060c0810135945060e0013592509050565b6001600160a01b0391909116815260200190565b6001600160a01b03929092168252602082015260400190565b602080825282518282018190526000919060409081850190868401855b8281101561193f57815180516001600160a01b03168552860151868501529284019290850190600101611911565b5091979650505050505050565b901515815260200190565b60208082526006908201526510db1bdcd95960d21b604082015260600190565b6020808252601a908201527f49444f206973206e6f74206f70656e20666f7220726566756e64000000000000604082015260600190565b60208082526022908201527f49444f20616c72656164792072656163686564206d696e696d756d2074617267604082015261195d60f21b606082015260800190565b6020808252601b908201527f49444f206e6f7420726561647920666f7220636c61696d207965740000000000604082015260600190565b60208082526016908201527513585e081a5b9d995cdd1b595b9d081c995858da195960521b604082015260600190565b602080825260149082015273139bdd081b5d58da081d1bdad95b9cc81b19599d60621b604082015260600190565b60208082526018908201527f5365656b20617070726f76616c2066726f6d2061646d696e0000000000000000604082015260600190565b6020808252600f908201526e2737ba1030b71034b73b32b9ba37b960891b604082015260600190565b6020808252601b908201527f416c726561647920636c61696d6564206f7220726566756e6465640000000000604082015260600190565b60208082526022908201527f486172642063617020726561636865642c4e6f206e65656420746f20726566756040820152611b9960f21b606082015260800190565b6020808252601f908201527f4d696e696d756d20696e766573746d656e7473206e6f74207265616368656400604082015260600190565b60208082526032908201527f4e657720446561646c696e65206d7573742062652067726561746572207468616040820152716e207468652063757272656e742074696d6560701b606082015260800190565b6020808252600b908201526a4e6f7420466163746f727960a81b604082015260600190565b60208082526010908201526f14dbd99d0818d85c081c995858da195960821b604082015260600190565b6020808252600790820152662737ba102232bb60c91b604082015260600190565b60208082526017908201527f41646472657373206e6f742077686974656c6973746564000000000000000000604082015260600190565b6020808252600b908201526a04e6f20736f6674206361760ac1b604082015260600190565b6020808252601a908201527f4d696e696d756d20746172676574206e6f742072656163686564000000000000604082015260600190565b6020808252600e908201526d49444f206e6f742061637469766560901b604082015260600190565b6020808252600e908201526d2737ba1024a227a1b932b0ba37b960911b604082015260600190565b60208082526010908201526f12185c990818d85c081c995858da195960821b604082015260600190565b60208082526039908201527f43616e6e6f742063616e63656c2c20496e73756666696369656e74205065726d60408201527f697373696f6e73206f7220746172676574207265616368656400000000000000606082015260800190565b6020808252600e908201526d139bdd081e595d0818db1bdcd95960921b604082015260600190565b6020808252601f908201527f5265656e7472616e637947756172643a207265656e7472616e742063616c6c00604082015260600190565b6020808252601c908201527f4e6f7420796574206f70656e20666f7220696e766573746d656e747300000000604082015260600190565b6020808252600e908201526d139bdd081e595d081bdc195b995960921b604082015260600190565b60208082526019908201527f4e6f742049444f43726561746f72206f7220466163746f727900000000000000604082015260600190565b602080825260169082015275139bc81b5bdc99481d1bdad95b9cc81d1bc81cd95b1b60521b604082015260600190565b90815260200190565b60ff91909116815260200190565b60008219821115611f1057611f1061209d565b500190565b600082611f3057634e487b7160e01b81526012600452602481fd5b500490565b80825b6001808611611f475750611f72565b818704821115611f5957611f5961209d565b80861615611f6657918102915b9490941c938002611f38565b94509492505050565b600061177b60001960ff851684600082611f975750600161177b565b81611fa45750600061177b565b8160018114611fba5760028114611fc457611ff1565b600191505061177b565b60ff841115611fd557611fd561209d565b6001841b915084821115611feb57611feb61209d565b5061177b565b5060208310610133831016604e8410600b8410161715612024575081810a8381111561201f5761201f61209d565b61177b565b6120318484846001611f35565b8086048211156120435761204361209d565b02949350505050565b60008160001904831182151516156120665761206661209d565b500290565b60008282101561207d5761207d61209d565b500390565b60006000198214156120965761209661209d565b5060010190565b634e487b7160e01b600052601160045260246000fdfea264697066735822122092f82a38e2380568b4f2b8ad39d8902b7c9d22298add503ff1e043a0498287dc64736f6c63430008010033a264697066735822122035abe164e331b1685895bf6d63364721ab4ccdecb24f11e323d1f07092e4cbec64736f6c63430008010033",
    "sourcePath": "/home/null/Desktop/IDO/contracts/IdoFactory.sol",
    "compiler": {
        "name": "solc",
        "version": "0.8.1+commit.df193b15"
    },
    "functionHashes": {
        "Idos(uint256)": "af110da8",
        "allIdos(uint256)": "314ea96c",
        "changeFee(uint256)": "6a1db1bf",
        "checkIdoDetails(uint256)": "29806fa4",
        "counter()": "61bc221a",
        "createPresale((address,address[],uint256,uint256,uint256,uint256,uint256,uint256,uint256,uint8))": "3d1241b9",
        "owner()": "8da5cb5b",
        "renounceOwnership()": "715018a6",
        "transferOwnership(address)": "f2fde38b"
    },
    "gasEstimates": {
        "creation": {
            "codeDepositCost": "2844600",
            "executionCost": "50587",
            "totalCost": "2895187"
        },
        "external": {
            "Idos(uint256)": "8824",
            "allIdos(uint256)": "infinite",
            "changeFee(uint256)": "21154",
            "checkIdoDetails(uint256)": "infinite",
            "counter()": "1095",
            "createPresale((address,address[],uint256,uint256,uint256,uint256,uint256,uint256,uint256,uint8))": "infinite",
            "owner()": "1114",
            "renounceOwnership()": "23526",
            "transferOwnership(address)": "infinite"
        },
        "internal": {
            "inititalizeIdo(contract IDOBase,uint256,uint256,struct IDOFactory.IdoInfo calldata)": "infinite"
        }
    }
}